{
  "_format": "hh-sol-artifact-1",
  "contractName": "FundingDAO",
  "sourceName": "contracts/fundingDao.sol",
  "abi": [
    {
      "anonymous": false,
      "inputs": [
        {
          "indexed": false,
          "internalType": "address",
          "name": "sender",
          "type": "address"
        },
        {
          "indexed": false,
          "internalType": "uint256",
          "name": "amount",
          "type": "uint256"
        }
      ],
      "name": "NewProposal",
      "type": "event"
    },
    {
      "anonymous": false,
      "inputs": [
        {
          "indexed": true,
          "internalType": "bytes32",
          "name": "role",
          "type": "bytes32"
        },
        {
          "indexed": true,
          "internalType": "bytes32",
          "name": "previousAdminRole",
          "type": "bytes32"
        },
        {
          "indexed": true,
          "internalType": "bytes32",
          "name": "newAdminRole",
          "type": "bytes32"
        }
      ],
      "name": "RoleAdminChanged",
      "type": "event"
    },
    {
      "anonymous": false,
      "inputs": [
        {
          "indexed": true,
          "internalType": "bytes32",
          "name": "role",
          "type": "bytes32"
        },
        {
          "indexed": true,
          "internalType": "address",
          "name": "account",
          "type": "address"
        },
        {
          "indexed": true,
          "internalType": "address",
          "name": "sender",
          "type": "address"
        }
      ],
      "name": "RoleGranted",
      "type": "event"
    },
    {
      "anonymous": false,
      "inputs": [
        {
          "indexed": true,
          "internalType": "bytes32",
          "name": "role",
          "type": "bytes32"
        },
        {
          "indexed": true,
          "internalType": "address",
          "name": "account",
          "type": "address"
        },
        {
          "indexed": true,
          "internalType": "address",
          "name": "sender",
          "type": "address"
        }
      ],
      "name": "RoleRevoked",
      "type": "event"
    },
    {
      "inputs": [],
      "name": "DEFAULT_ADMIN_ROLE",
      "outputs": [
        {
          "internalType": "bytes32",
          "name": "",
          "type": "bytes32"
        }
      ],
      "stateMutability": "view",
      "type": "function"
    },
    {
      "inputs": [],
      "name": "MEMBER",
      "outputs": [
        {
          "internalType": "bytes32",
          "name": "",
          "type": "bytes32"
        }
      ],
      "stateMutability": "view",
      "type": "function"
    },
    {
      "inputs": [],
      "name": "STAKEHOLDER",
      "outputs": [
        {
          "internalType": "bytes32",
          "name": "",
          "type": "bytes32"
        }
      ],
      "stateMutability": "view",
      "type": "function"
    },
    {
      "inputs": [
        {
          "internalType": "string",
          "name": "title",
          "type": "string"
        },
        {
          "internalType": "string",
          "name": "desc",
          "type": "string"
        },
        {
          "internalType": "address",
          "name": "receiverAddress",
          "type": "address"
        },
        {
          "internalType": "uint256",
          "name": "amount",
          "type": "uint256"
        }
      ],
      "name": "createProposal",
      "outputs": [],
      "stateMutability": "payable",
      "type": "function"
    },
    {
      "inputs": [],
      "name": "createStakeholder",
      "outputs": [],
      "stateMutability": "payable",
      "type": "function"
    },
    {
      "inputs": [],
      "name": "getAllProposals",
      "outputs": [
        {
          "components": [
            {
              "internalType": "uint256",
              "name": "id",
              "type": "uint256"
            },
            {
              "internalType": "uint256",
              "name": "amount",
              "type": "uint256"
            },
            {
              "internalType": "uint256",
              "name": "livePeriod",
              "type": "uint256"
            },
            {
              "internalType": "uint256",
              "name": "voteInFavor",
              "type": "uint256"
            },
            {
              "internalType": "uint256",
              "name": "voteAgainst",
              "type": "uint256"
            },
            {
              "internalType": "string",
              "name": "title",
              "type": "string"
            },
            {
              "internalType": "string",
              "name": "desc",
              "type": "string"
            },
            {
              "internalType": "bool",
              "name": "isCompleted",
              "type": "bool"
            },
            {
              "internalType": "bool",
              "name": "paid",
              "type": "bool"
            },
            {
              "internalType": "bool",
              "name": "isPaid",
              "type": "bool"
            },
            {
              "internalType": "address payable",
              "name": "receiverAddress",
              "type": "address"
            },
            {
              "internalType": "address",
              "name": "proposer",
              "type": "address"
            },
            {
              "internalType": "uint256",
              "name": "totalFundRaised",
              "type": "uint256"
            },
            {
              "components": [
                {
                  "internalType": "address",
                  "name": "payer",
                  "type": "address"
                },
                {
                  "internalType": "uint256",
                  "name": "amount",
                  "type": "uint256"
                },
                {
                  "internalType": "uint256",
                  "name": "timestamp",
                  "type": "uint256"
                }
              ],
              "internalType": "struct FundingDAO.Funding[]",
              "name": "Funders",
              "type": "tuple[]"
            }
          ],
          "internalType": "struct FundingDAO.Proposal[]",
          "name": "",
          "type": "tuple[]"
        }
      ],
      "stateMutability": "view",
      "type": "function"
    },
    {
      "inputs": [],
      "name": "getMemberBal",
      "outputs": [
        {
          "internalType": "uint256",
          "name": "",
          "type": "uint256"
        }
      ],
      "stateMutability": "view",
      "type": "function"
    },
    {
      "inputs": [
        {
          "internalType": "uint256",
          "name": "proposalId",
          "type": "uint256"
        }
      ],
      "name": "getProposal",
      "outputs": [
        {
          "components": [
            {
              "internalType": "uint256",
              "name": "id",
              "type": "uint256"
            },
            {
              "internalType": "uint256",
              "name": "amount",
              "type": "uint256"
            },
            {
              "internalType": "uint256",
              "name": "livePeriod",
              "type": "uint256"
            },
            {
              "internalType": "uint256",
              "name": "voteInFavor",
              "type": "uint256"
            },
            {
              "internalType": "uint256",
              "name": "voteAgainst",
              "type": "uint256"
            },
            {
              "internalType": "string",
              "name": "title",
              "type": "string"
            },
            {
              "internalType": "string",
              "name": "desc",
              "type": "string"
            },
            {
              "internalType": "bool",
              "name": "isCompleted",
              "type": "bool"
            },
            {
              "internalType": "bool",
              "name": "paid",
              "type": "bool"
            },
            {
              "internalType": "bool",
              "name": "isPaid",
              "type": "bool"
            },
            {
              "internalType": "address payable",
              "name": "receiverAddress",
              "type": "address"
            },
            {
              "internalType": "address",
              "name": "proposer",
              "type": "address"
            },
            {
              "internalType": "uint256",
              "name": "totalFundRaised",
              "type": "uint256"
            },
            {
              "components": [
                {
                  "internalType": "address",
                  "name": "payer",
                  "type": "address"
                },
                {
                  "internalType": "uint256",
                  "name": "amount",
                  "type": "uint256"
                },
                {
                  "internalType": "uint256",
                  "name": "timestamp",
                  "type": "uint256"
                }
              ],
              "internalType": "struct FundingDAO.Funding[]",
              "name": "Funders",
              "type": "tuple[]"
            }
          ],
          "internalType": "struct FundingDAO.Proposal",
          "name": "",
          "type": "tuple"
        }
      ],
      "stateMutability": "view",
      "type": "function"
    },
    {
      "inputs": [
        {
          "internalType": "bytes32",
          "name": "role",
          "type": "bytes32"
        }
      ],
      "name": "getRoleAdmin",
      "outputs": [
        {
          "internalType": "bytes32",
          "name": "",
          "type": "bytes32"
        }
      ],
      "stateMutability": "view",
      "type": "function"
    },
    {
      "inputs": [],
      "name": "getStakeholderBal",
      "outputs": [
        {
          "internalType": "uint256",
          "name": "",
          "type": "uint256"
        }
      ],
      "stateMutability": "view",
      "type": "function"
    },
    {
      "inputs": [],
      "name": "getVotes",
      "outputs": [
        {
          "internalType": "uint256[]",
          "name": "",
          "type": "uint256[]"
        }
      ],
      "stateMutability": "view",
      "type": "function"
    },
    {
      "inputs": [
        {
          "internalType": "bytes32",
          "name": "role",
          "type": "bytes32"
        },
        {
          "internalType": "address",
          "name": "account",
          "type": "address"
        }
      ],
      "name": "grantRole",
      "outputs": [],
      "stateMutability": "nonpayable",
      "type": "function"
    },
    {
      "inputs": [
        {
          "internalType": "bytes32",
          "name": "role",
          "type": "bytes32"
        },
        {
          "internalType": "address",
          "name": "account",
          "type": "address"
        }
      ],
      "name": "hasRole",
      "outputs": [
        {
          "internalType": "bool",
          "name": "",
          "type": "bool"
        }
      ],
      "stateMutability": "view",
      "type": "function"
    },
    {
      "inputs": [],
      "name": "isMember",
      "outputs": [
        {
          "internalType": "bool",
          "name": "",
          "type": "bool"
        }
      ],
      "stateMutability": "view",
      "type": "function"
    },
    {
      "inputs": [],
      "name": "isStakeholder",
      "outputs": [
        {
          "internalType": "bool",
          "name": "",
          "type": "bool"
        }
      ],
      "stateMutability": "view",
      "type": "function"
    },
    {
      "inputs": [],
      "name": "proposalsCount",
      "outputs": [
        {
          "internalType": "uint256",
          "name": "",
          "type": "uint256"
        }
      ],
      "stateMutability": "view",
      "type": "function"
    },
    {
      "inputs": [
        {
          "internalType": "uint256",
          "name": "proposalId",
          "type": "uint256"
        },
        {
          "internalType": "uint256",
          "name": "fundAmount",
          "type": "uint256"
        }
      ],
      "name": "provideFunds",
      "outputs": [],
      "stateMutability": "payable",
      "type": "function"
    },
    {
      "inputs": [
        {
          "internalType": "uint256",
          "name": "proposalId",
          "type": "uint256"
        }
      ],
      "name": "releaseFunding",
      "outputs": [],
      "stateMutability": "payable",
      "type": "function"
    },
    {
      "inputs": [
        {
          "internalType": "bytes32",
          "name": "role",
          "type": "bytes32"
        },
        {
          "internalType": "address",
          "name": "account",
          "type": "address"
        }
      ],
      "name": "renounceRole",
      "outputs": [],
      "stateMutability": "nonpayable",
      "type": "function"
    },
    {
      "inputs": [
        {
          "internalType": "bytes32",
          "name": "role",
          "type": "bytes32"
        },
        {
          "internalType": "address",
          "name": "account",
          "type": "address"
        }
      ],
      "name": "revokeRole",
      "outputs": [],
      "stateMutability": "nonpayable",
      "type": "function"
    },
    {
      "inputs": [
        {
          "internalType": "bytes4",
          "name": "interfaceId",
          "type": "bytes4"
        }
      ],
      "name": "supportsInterface",
      "outputs": [
        {
          "internalType": "bool",
          "name": "",
          "type": "bool"
        }
      ],
      "stateMutability": "view",
      "type": "function"
    },
    {
      "inputs": [
        {
          "internalType": "uint256",
          "name": "proposalId",
          "type": "uint256"
        },
        {
          "internalType": "bool",
          "name": "inFavour",
          "type": "bool"
        }
      ],
      "name": "vote",
      "outputs": [],
      "stateMutability": "nonpayable",
      "type": "function"
    }
  ],
  "bytecode": "0x6080604052600060065534801561001557600080fd5b5060016000819055506137b48061002d6000396000f3fe6080604052600436106101355760003560e01c80638bc3b92b116100ab578063c7f758a81161006f578063c7f758a8146103ef578063c9d27afe1461042c578063cceb68f514610455578063d02982cf14610480578063d547741f146104ab578063f8d41b96146104d457610135565b80638bc3b92b1461032457806391d1485414610340578063a217fddf1461037d578063b3bcf752146103a8578063c02146ac146103c457610135565b8063248a9ca3116100fd578063248a9ca3146102235780632f2ff15d1461026057806336568abe146102895780636dd8cdd2146102b25780637cdc2eb7146102dd5780637ed3a7e7146102f957610135565b806301ffc9a71461013a5780630a9f46ad146101775780630d2e57ee146101a25780630dc96015146101cd5780631c681a42146101f8575b600080fd5b34801561014657600080fd5b50610161600480360381019061015c919061242a565b6104de565b60405161016e9190612472565b60405180910390f35b34801561018357600080fd5b5061018c610558565b60405161019991906124a6565b60405180910390f35b3480156101ae57600080fd5b506101b761055e565b6040516101c491906124a6565b60405180910390f35b3480156101d957600080fd5b506101e261062c565b6040516101ef919061257f565b60405180910390f35b34801561020457600080fd5b5061020d610748565b60405161021a91906125ba565b60405180910390f35b34801561022f57600080fd5b5061024a60048036038101906102459190612601565b61076c565b60405161025791906125ba565b60405180910390f35b34801561026c57600080fd5b506102876004803603810190610282919061268c565b61078c565b005b34801561029557600080fd5b506102b060048036038101906102ab919061268c565b6107ad565b005b3480156102be57600080fd5b506102c7610830565b6040516102d491906124a6565b60405180910390f35b6102f760048036038101906102f2919061275d565b6108fe565b005b34801561030557600080fd5b5061030e610b5f565b60405161031b91906125ba565b60405180910390f35b61033e60048036038101906103399190612804565b610b83565b005b34801561034c57600080fd5b506103676004803603810190610362919061268c565b610e0f565b6040516103749190612472565b60405180910390f35b34801561038957600080fd5b50610392610e7a565b60405161039f91906125ba565b60405180910390f35b6103c260048036038101906103bd9190612844565b610e81565b005b3480156103d057600080fd5b506103d9611016565b6040516103e69190612472565b60405180910390f35b3480156103fb57600080fd5b5061041660048036038101906104119190612844565b61105f565b6040516104239190612b76565b60405180910390f35b34801561043857600080fd5b50610453600480360381019061044e9190612bc4565b6113b3565b005b34801561046157600080fd5b5061046a611649565b6040516104779190612e02565b60405180910390f35b34801561048c57600080fd5b50610495611a30565b6040516104a29190612472565b60405180910390f35b3480156104b757600080fd5b506104d260048036038101906104cd919061268c565b611a79565b005b6104dc611a9a565b005b60007f7965db0b000000000000000000000000000000000000000000000000000000007bffffffffffffffffffffffffffffffffffffffffffffffffffffffff1916827bffffffffffffffffffffffffffffffffffffffffffffffffffffffff19161480610551575061055082611d55565b5b9050919050565b60065481565b6000604051806060016040528060248152602001613738602491396105a37fffa60083152bd11704a80cc8c7a409dad8aa74288b454a3ba0e94c0abc7cf16833610e0f565b81906105e5576040517f08c379a00000000000000000000000000000000000000000000000000000000081526004016105dc9190612e6e565b60405180910390fd5b50600460003373ffffffffffffffffffffffffffffffffffffffff1673ffffffffffffffffffffffffffffffffffffffff1681526020019081526020016000205491505090565b6060604051806060016040528060288152602001613698602891396106717ff4bb84e1768dd286358a736d195a0b228621173f655a73b89bf8b191ed0ba07d33610e0f565b81906106b3576040517f08c379a00000000000000000000000000000000000000000000000000000000081526004016106aa9190612e6e565b60405180910390fd5b50600560003373ffffffffffffffffffffffffffffffffffffffff1673ffffffffffffffffffffffffffffffffffffffff16815260200190815260200160002080548060200260200160405190810160405280929190818152602001828054801561073d57602002820191906000526020600020905b815481526020019060010190808311610729575b505050505091505090565b7fffa60083152bd11704a80cc8c7a409dad8aa74288b454a3ba0e94c0abc7cf16881565b600060016000838152602001908152602001600020600101549050919050565b6107958261076c565b61079e81611dbf565b6107a88383611dd3565b505050565b6107b5611eb3565b73ffffffffffffffffffffffffffffffffffffffff168173ffffffffffffffffffffffffffffffffffffffff1614610822576040517f08c379a000000000000000000000000000000000000000000000000000000000815260040161081990612f02565b60405180910390fd5b61082c8282611ebb565b5050565b6000604051806060016040528060288152602001613698602891396108757ff4bb84e1768dd286358a736d195a0b228621173f655a73b89bf8b191ed0ba07d33610e0f565b81906108b7576040517f08c379a00000000000000000000000000000000000000000000000000000000081526004016108ae9190612e6e565b60405180910390fd5b50600460003373ffffffffffffffffffffffffffffffffffffffff1673ffffffffffffffffffffffffffffffffffffffff1681526020019081526020016000205491505090565b6040518060600160405280602181526020016136ee602191396109417fffa60083152bd11704a80cc8c7a409dad8aa74288b454a3ba0e94c0abc7cf16833610e0f565b8190610983576040517f08c379a000000000000000000000000000000000000000000000000000000000815260040161097a9190612e6e565b60405180910390fd5b50674563918244f4000034146109ce576040517f08c379a00000000000000000000000000000000000000000000000000000000081526004016109c590612f94565b60405180910390fd5b6000600654905060006002600083815260200190815260200160002090508181600001819055508686826006019190610a08929190612284565b508888826005019190610a1c929190612284565b50848160070160036101000a81548173ffffffffffffffffffffffffffffffffffffffff021916908373ffffffffffffffffffffffffffffffffffffffff160217905550338160080160006101000a81548173ffffffffffffffffffffffffffffffffffffffff021916908373ffffffffffffffffffffffffffffffffffffffff1602179055508381600101819055506203f48063ffffffff1642610ac19190612fe3565b816002018190555060008160070160026101000a81548160ff02191690831515021790555060008160070160006101000a81548160ff02191690831515021790555060066000815480929190610b1690613039565b91905055507f8dfa4a39b973cacc42c5d14d9461d66fd1fda5ea696f7d2a3c44fd9d7f11d04f3385604051610b4c929190613091565b60405180910390a1505050505050505050565b7ff4bb84e1768dd286358a736d195a0b228621173f655a73b89bf8b191ed0ba07d81565b60405180606001604052806023815260200161375c60239139610bc67ff4bb84e1768dd286358a736d195a0b228621173f655a73b89bf8b191ed0ba07d33610e0f565b8190610c08576040517f08c379a0000000000000000000000000000000000000000000000000000000008152600401610bff9190612e6e565b60405180910390fd5b5060006002600085815260200190815260200160002090508060070160029054906101000a900460ff1615610c72576040517f08c379a0000000000000000000000000000000000000000000000000000000008152600401610c6990613106565b60405180910390fd5b8060040154816003015411610cbc576040517f08c379a0000000000000000000000000000000000000000000000000000000008152600401610cb390613198565b60405180910390fd5b8060010154816009015410610d06576040517f08c379a0000000000000000000000000000000000000000000000000000000008152600401610cfd9061322a565b60405180910390fd5b82816009016000828254610d1a9190612fe3565b9250508190555080600a0160405180606001604052803373ffffffffffffffffffffffffffffffffffffffff16815260200185815260200142815250908060018154018082558091505060019003906000526020600020906003020160009091909190915060008201518160000160006101000a81548173ffffffffffffffffffffffffffffffffffffffff021916908373ffffffffffffffffffffffffffffffffffffffff160217905550602082015181600101556040820151816002015550508060010154816009015410610e095760018160070160006101000a81548160ff0219169083151502179055505b50505050565b60006001600084815260200190815260200160002060000160008373ffffffffffffffffffffffffffffffffffffffff1673ffffffffffffffffffffffffffffffffffffffff16815260200190815260200160002060009054906101000a900460ff16905092915050565b6000801b81565b6040518060600160405280602e81526020016136c0602e9139610ec47ff4bb84e1768dd286358a736d195a0b228621173f655a73b89bf8b191ed0ba07d33610e0f565b8190610f06576040517f08c379a0000000000000000000000000000000000000000000000000000000008152600401610efd9190612e6e565b60405180910390fd5b5060006002600084815260200190815260200160002090508060010154816009015411610f68576040517f08c379a0000000000000000000000000000000000000000000000000000000008152600401610f5f906132bc565b60405180910390fd5b8060070160039054906101000a900473ffffffffffffffffffffffffffffffffffffffff1673ffffffffffffffffffffffffffffffffffffffff166108fc82600901549081150290604051600060405180830381858888f19350505050158015610fd6573d6000803e3d6000fd5b5060018160070160026101000a81548160ff02191690831515021790555060018160070160006101000a81548160ff021916908315150217905550505050565b600080600360003373ffffffffffffffffffffffffffffffffffffffff1673ffffffffffffffffffffffffffffffffffffffff1681526020019081526020016000205411905090565b61106761230a565b60026000838152602001908152602001600020604051806101c001604052908160008201548152602001600182015481526020016002820154815260200160038201548152602001600482015481526020016005820180546110c89061330b565b80601f01602080910402602001604051908101604052809291908181526020018280546110f49061330b565b80156111415780601f1061111657610100808354040283529160200191611141565b820191906000526020600020905b81548152906001019060200180831161112457829003601f168201915b5050505050815260200160068201805461115a9061330b565b80601f01602080910402602001604051908101604052809291908181526020018280546111869061330b565b80156111d35780601f106111a8576101008083540402835291602001916111d3565b820191906000526020600020905b8154815290600101906020018083116111b657829003601f168201915b505050505081526020016007820160009054906101000a900460ff161515151581526020016007820160019054906101000a900460ff161515151581526020016007820160029054906101000a900460ff161515151581526020016007820160039054906101000a900473ffffffffffffffffffffffffffffffffffffffff1673ffffffffffffffffffffffffffffffffffffffff1673ffffffffffffffffffffffffffffffffffffffff1681526020016008820160009054906101000a900473ffffffffffffffffffffffffffffffffffffffff1673ffffffffffffffffffffffffffffffffffffffff1673ffffffffffffffffffffffffffffffffffffffff16815260200160098201548152602001600a8201805480602002602001604051908101604052809291908181526020016000905b828210156113a457838290600052602060002090600302016040518060600160405290816000820160009054906101000a900473ffffffffffffffffffffffffffffffffffffffff1673ffffffffffffffffffffffffffffffffffffffff1673ffffffffffffffffffffffffffffffffffffffff1681526020016001820154815260200160028201548152505081526020019060010190611308565b50505050815250509050919050565b60405180606001604052806029815260200161370f602991396113f67ff4bb84e1768dd286358a736d195a0b228621173f655a73b89bf8b191ed0ba07d33610e0f565b8190611438576040517f08c379a000000000000000000000000000000000000000000000000000000000815260040161142f9190612e6e565b60405180910390fd5b5060006002600085815260200190815260200160002090508060070160009054906101000a900460ff1680611471575042816002015411155b156114ce5760018160070160006101000a81548160ff0219169083151502179055506040517f08c379a00000000000000000000000000000000000000000000000000000000081526004016114c5906133af565b60405180910390fd5b60005b600560003373ffffffffffffffffffffffffffffffffffffffff1673ffffffffffffffffffffffffffffffffffffffff168152602001908152602001600020805490508110156115d057600560003373ffffffffffffffffffffffffffffffffffffffff1673ffffffffffffffffffffffffffffffffffffffff168152602001908152602001600020818154811061156c5761156b6133cf565b5b9060005260206000200154826000015414156115bd576040517f08c379a00000000000000000000000000000000000000000000000000000000081526004016115b49061344a565b60405180910390fd5b80806115c890613039565b9150506114d1565b5082156115dc576115dd565b5b600560003373ffffffffffffffffffffffffffffffffffffffff1673ffffffffffffffffffffffffffffffffffffffff16815260200190815260200160002084908060018154018082558091505060019003906000526020600020016000909190919091505550505050565b6060600060065467ffffffffffffffff8111156116695761166861346a565b5b6040519080825280602002602001820160405280156116a257816020015b61168f61230a565b8152602001906001900390816116875790505b50905060005b600654811015611a285760026000828152602001908152602001600020604051806101c001604052908160008201548152602001600182015481526020016002820154815260200160038201548152602001600482015481526020016005820180546117139061330b565b80601f016020809104026020016040519081016040528092919081815260200182805461173f9061330b565b801561178c5780601f106117615761010080835404028352916020019161178c565b820191906000526020600020905b81548152906001019060200180831161176f57829003601f168201915b505050505081526020016006820180546117a59061330b565b80601f01602080910402602001604051908101604052809291908181526020018280546117d19061330b565b801561181e5780601f106117f35761010080835404028352916020019161181e565b820191906000526020600020905b81548152906001019060200180831161180157829003601f168201915b505050505081526020016007820160009054906101000a900460ff161515151581526020016007820160019054906101000a900460ff161515151581526020016007820160029054906101000a900460ff161515151581526020016007820160039054906101000a900473ffffffffffffffffffffffffffffffffffffffff1673ffffffffffffffffffffffffffffffffffffffff1673ffffffffffffffffffffffffffffffffffffffff1681526020016008820160009054906101000a900473ffffffffffffffffffffffffffffffffffffffff1673ffffffffffffffffffffffffffffffffffffffff1673ffffffffffffffffffffffffffffffffffffffff16815260200160098201548152602001600a8201805480602002602001604051908101604052809291908181526020016000905b828210156119ef57838290600052602060002090600302016040518060600160405290816000820160009054906101000a900473ffffffffffffffffffffffffffffffffffffffff1673ffffffffffffffffffffffffffffffffffffffff1673ffffffffffffffffffffffffffffffffffffffff1681526020016001820154815260200160028201548152505081526020019060010190611953565b5050505081525050828281518110611a0a57611a096133cf565b5b60200260200101819052508080611a2090613039565b9150506116a8565b508091505090565b600080600460003373ffffffffffffffffffffffffffffffffffffffff1673ffffffffffffffffffffffffffffffffffffffff1681526020019081526020016000205411905090565b611a828261076c565b611a8b81611dbf565b611a958383611ebb565b505050565b6000349050611ac97ff4bb84e1768dd286358a736d195a0b228621173f655a73b89bf8b191ed0ba07d33610e0f565b611ca557600081600460003373ffffffffffffffffffffffffffffffffffffffff1673ffffffffffffffffffffffffffffffffffffffff16815260200190815260200160002054611b1a9190612fe3565b9050671bc16d674ec800008110611c1e57611b557ff4bb84e1768dd286358a736d195a0b228621173f655a73b89bf8b191ed0ba07d33611f9d565b611b7f7fffa60083152bd11704a80cc8c7a409dad8aa74288b454a3ba0e94c0abc7cf16833611f9d565b80600360003373ffffffffffffffffffffffffffffffffffffffff1673ffffffffffffffffffffffffffffffffffffffff1681526020019081526020016000208190555081600460003373ffffffffffffffffffffffffffffffffffffffff1673ffffffffffffffffffffffffffffffffffffffff1681526020019081526020016000206000828254611c129190612fe3565b92505081905550611c9f565b611c487fffa60083152bd11704a80cc8c7a409dad8aa74288b454a3ba0e94c0abc7cf16833611f9d565b81600460003373ffffffffffffffffffffffffffffffffffffffff1673ffffffffffffffffffffffffffffffffffffffff1681526020019081526020016000206000828254611c979190612fe3565b925050819055505b50611d52565b80600460003373ffffffffffffffffffffffffffffffffffffffff1673ffffffffffffffffffffffffffffffffffffffff1681526020019081526020016000206000828254611cf49190612fe3565b9250508190555080600360003373ffffffffffffffffffffffffffffffffffffffff1673ffffffffffffffffffffffffffffffffffffffff1681526020019081526020016000206000828254611d4a9190612fe3565b925050819055505b50565b60007f01ffc9a7000000000000000000000000000000000000000000000000000000007bffffffffffffffffffffffffffffffffffffffffffffffffffffffff1916827bffffffffffffffffffffffffffffffffffffffffffffffffffffffff1916149050919050565b611dd081611dcb611eb3565b611fab565b50565b611ddd8282610e0f565b611eaf57600180600084815260200190815260200160002060000160008373ffffffffffffffffffffffffffffffffffffffff1673ffffffffffffffffffffffffffffffffffffffff16815260200190815260200160002060006101000a81548160ff021916908315150217905550611e54611eb3565b73ffffffffffffffffffffffffffffffffffffffff168173ffffffffffffffffffffffffffffffffffffffff16837f2f8788117e7eff1d82e926ec794901d17c78024a50270940304540a733656f0d60405160405180910390a45b5050565b600033905090565b611ec58282610e0f565b15611f995760006001600084815260200190815260200160002060000160008373ffffffffffffffffffffffffffffffffffffffff1673ffffffffffffffffffffffffffffffffffffffff16815260200190815260200160002060006101000a81548160ff021916908315150217905550611f3e611eb3565b73ffffffffffffffffffffffffffffffffffffffff168173ffffffffffffffffffffffffffffffffffffffff16837ff6391f5c32d9c69d2a47ea670b442974b53935d1edc7fd64eb21e047a839171b60405160405180910390a45b5050565b611fa78282611dd3565b5050565b611fb58282610e0f565b61204457611fda8173ffffffffffffffffffffffffffffffffffffffff166014612048565b611fe88360001c6020612048565b604051602001611ff992919061356d565b6040516020818303038152906040526040517f08c379a000000000000000000000000000000000000000000000000000000000815260040161203b9190612e6e565b60405180910390fd5b5050565b60606000600283600261205b91906135a7565b6120659190612fe3565b67ffffffffffffffff81111561207e5761207d61346a565b5b6040519080825280601f01601f1916602001820160405280156120b05781602001600182028036833780820191505090505b5090507f3000000000000000000000000000000000000000000000000000000000000000816000815181106120e8576120e76133cf565b5b60200101907effffffffffffffffffffffffffffffffffffffffffffffffffffffffffffff1916908160001a9053507f78000000000000000000000000000000000000000000000000000000000000008160018151811061214c5761214b6133cf565b5b60200101907effffffffffffffffffffffffffffffffffffffffffffffffffffffffffffff1916908160001a9053506000600184600261218c91906135a7565b6121969190612fe3565b90505b6001811115612236577f3031323334353637383961626364656600000000000000000000000000000000600f8616601081106121d8576121d76133cf565b5b1a60f81b8282815181106121ef576121ee6133cf565b5b60200101907effffffffffffffffffffffffffffffffffffffffffffffffffffffffffffff1916908160001a905350600485901c94508061222f90613601565b9050612199565b506000841461227a576040517f08c379a000000000000000000000000000000000000000000000000000000000815260040161227190613677565b60405180910390fd5b8091505092915050565b8280546122909061330b565b90600052602060002090601f0160209004810192826122b257600085556122f9565b82601f106122cb57803560ff19168380011785556122f9565b828001600101855582156122f9579182015b828111156122f85782358255916020019190600101906122dd565b5b50905061230691906123ab565b5090565b604051806101c0016040528060008152602001600081526020016000815260200160008152602001600081526020016060815260200160608152602001600015158152602001600015158152602001600015158152602001600073ffffffffffffffffffffffffffffffffffffffff168152602001600073ffffffffffffffffffffffffffffffffffffffff16815260200160008152602001606081525090565b5b808211156123c45760008160009055506001016123ac565b5090565b600080fd5b600080fd5b60007fffffffff0000000000000000000000000000000000000000000000000000000082169050919050565b612407816123d2565b811461241257600080fd5b50565b600081359050612424816123fe565b92915050565b6000602082840312156124405761243f6123c8565b5b600061244e84828501612415565b91505092915050565b60008115159050919050565b61246c81612457565b82525050565b60006020820190506124876000830184612463565b92915050565b6000819050919050565b6124a08161248d565b82525050565b60006020820190506124bb6000830184612497565b92915050565b600081519050919050565b600082825260208201905092915050565b6000819050602082019050919050565b6124f68161248d565b82525050565b600061250883836124ed565b60208301905092915050565b6000602082019050919050565b600061252c826124c1565b61253681856124cc565b9350612541836124dd565b8060005b8381101561257257815161255988826124fc565b975061256483612514565b925050600181019050612545565b5085935050505092915050565b600060208201905081810360008301526125998184612521565b905092915050565b6000819050919050565b6125b4816125a1565b82525050565b60006020820190506125cf60008301846125ab565b92915050565b6125de816125a1565b81146125e957600080fd5b50565b6000813590506125fb816125d5565b92915050565b600060208284031215612617576126166123c8565b5b6000612625848285016125ec565b91505092915050565b600073ffffffffffffffffffffffffffffffffffffffff82169050919050565b60006126598261262e565b9050919050565b6126698161264e565b811461267457600080fd5b50565b60008135905061268681612660565b92915050565b600080604083850312156126a3576126a26123c8565b5b60006126b1858286016125ec565b92505060206126c285828601612677565b9150509250929050565b600080fd5b600080fd5b600080fd5b60008083601f8401126126f1576126f06126cc565b5b8235905067ffffffffffffffff81111561270e5761270d6126d1565b5b60208301915083600182028301111561272a576127296126d6565b5b9250929050565b61273a8161248d565b811461274557600080fd5b50565b60008135905061275781612731565b92915050565b6000806000806000806080878903121561277a576127796123c8565b5b600087013567ffffffffffffffff811115612798576127976123cd565b5b6127a489828a016126db565b9650965050602087013567ffffffffffffffff8111156127c7576127c66123cd565b5b6127d389828a016126db565b945094505060406127e689828a01612677565b92505060606127f789828a01612748565b9150509295509295509295565b6000806040838503121561281b5761281a6123c8565b5b600061282985828601612748565b925050602061283a85828601612748565b9150509250929050565b60006020828403121561285a576128596123c8565b5b600061286884828501612748565b91505092915050565b600081519050919050565b600082825260208201905092915050565b60005b838110156128ab578082015181840152602081019050612890565b838111156128ba576000848401525b50505050565b6000601f19601f8301169050919050565b60006128dc82612871565b6128e6818561287c565b93506128f681856020860161288d565b6128ff816128c0565b840191505092915050565b61291381612457565b82525050565b60006129248261262e565b9050919050565b61293481612919565b82525050565b6129438161264e565b82525050565b600081519050919050565b600082825260208201905092915050565b6000819050602082019050919050565b60608201600082015161298b600085018261293a565b50602082015161299e60208501826124ed565b5060408201516129b160408501826124ed565b50505050565b60006129c38383612975565b60608301905092915050565b6000602082019050919050565b60006129e782612949565b6129f18185612954565b93506129fc83612965565b8060005b83811015612a2d578151612a1488826129b7565b9750612a1f836129cf565b925050600181019050612a00565b5085935050505092915050565b60006101c083016000830151612a5360008601826124ed565b506020830151612a6660208601826124ed565b506040830151612a7960408601826124ed565b506060830151612a8c60608601826124ed565b506080830151612a9f60808601826124ed565b5060a083015184820360a0860152612ab782826128d1565b91505060c083015184820360c0860152612ad182826128d1565b91505060e0830151612ae660e086018261290a565b50610100830151612afb61010086018261290a565b50610120830151612b1061012086018261290a565b50610140830151612b2561014086018261292b565b50610160830151612b3a61016086018261293a565b50610180830151612b4f6101808601826124ed565b506101a08301518482036101a0860152612b6982826129dc565b9150508091505092915050565b60006020820190508181036000830152612b908184612a3a565b905092915050565b612ba181612457565b8114612bac57600080fd5b50565b600081359050612bbe81612b98565b92915050565b60008060408385031215612bdb57612bda6123c8565b5b6000612be985828601612748565b9250506020612bfa85828601612baf565b9150509250929050565b600081519050919050565b600082825260208201905092915050565b6000819050602082019050919050565b60006101c083016000830151612c4960008601826124ed565b506020830151612c5c60208601826124ed565b506040830151612c6f60408601826124ed565b506060830151612c8260608601826124ed565b506080830151612c9560808601826124ed565b5060a083015184820360a0860152612cad82826128d1565b91505060c083015184820360c0860152612cc782826128d1565b91505060e0830151612cdc60e086018261290a565b50610100830151612cf161010086018261290a565b50610120830151612d0661012086018261290a565b50610140830151612d1b61014086018261292b565b50610160830151612d3061016086018261293a565b50610180830151612d456101808601826124ed565b506101a08301518482036101a0860152612d5f82826129dc565b9150508091505092915050565b6000612d788383612c30565b905092915050565b6000602082019050919050565b6000612d9882612c04565b612da28185612c0f565b935083602082028501612db485612c20565b8060005b85811015612df05784840389528151612dd18582612d6c565b9450612ddc83612d80565b925060208a01995050600181019050612db8565b50829750879550505050505092915050565b60006020820190508181036000830152612e1c8184612d8d565b905092915050565b600082825260208201905092915050565b6000612e4082612871565b612e4a8185612e24565b9350612e5a81856020860161288d565b612e63816128c0565b840191505092915050565b60006020820190508181036000830152612e888184612e35565b905092915050565b7f416363657373436f6e74726f6c3a2063616e206f6e6c792072656e6f756e636560008201527f20726f6c657320666f722073656c660000000000000000000000000000000000602082015250565b6000612eec602f83612e24565b9150612ef782612e90565b604082019050919050565b60006020820190508181036000830152612f1b81612edf565b9050919050565b7f596f75206e65656420746f206164642035204d4154494320746f20637265617460008201527f6520612070726f706f73616c0000000000000000000000000000000000000000602082015250565b6000612f7e602c83612e24565b9150612f8982612f22565b604082019050919050565b60006020820190508181036000830152612fad81612f71565b9050919050565b7f4e487b7100000000000000000000000000000000000000000000000000000000600052601160045260246000fd5b6000612fee8261248d565b9150612ff98361248d565b9250827fffffffffffffffffffffffffffffffffffffffffffffffffffffffffffffffff0382111561302e5761302d612fb4565b5b828201905092915050565b60006130448261248d565b91507fffffffffffffffffffffffffffffffffffffffffffffffffffffffffffffffff82141561307757613076612fb4565b5b600182019050919050565b61308b8161264e565b82525050565b60006040820190506130a66000830185613082565b6130b36020830184612497565b9392505050565b7f50726f706f73616c20616c72656164792070616964206f75742e000000000000600082015250565b60006130f0601a83612e24565b91506130fb826130ba565b602082019050919050565b6000602082019050818103600083015261311f816130e3565b9050919050565b7f546869732070726f706f73616c206973206e6f742073656c656374656420666f60008201527f722066756e64696e672e00000000000000000000000000000000000000000000602082015250565b6000613182602a83612e24565b915061318d82613126565b604082019050919050565b600060208201905081810360008301526131b181613175565b9050919050565b7f50726f706f73616c2066756e64696e6720676f616c20616c726561647920726560008201527f61636865642e0000000000000000000000000000000000000000000000000000602082015250565b6000613214602683612e24565b915061321f826131b8565b604082019050919050565b6000602082019050818103600083015261324381613207565b9050919050565b7f5265717565737465642066756e64696e6720676f616c206973206e6f74206d6560008201527f742e20506c656173652070726f766964652066756e64732e0000000000000000602082015250565b60006132a6603883612e24565b91506132b18261324a565b604082019050919050565b600060208201905081810360008301526132d581613299565b9050919050565b7f4e487b7100000000000000000000000000000000000000000000000000000000600052602260045260246000fd5b6000600282049050600182168061332357607f821691505b60208210811415613337576133366132dc565b5b50919050565b7f54696d6520706572696f64206f6620746869732070726f706f73616c2069732060008201527f656e646564000000000000000000000000000000000000000000000000000000602082015250565b6000613399602583612e24565b91506133a48261333d565b604082019050919050565b600060208201905081810360008301526133c88161338c565b9050919050565b7f4e487b7100000000000000000000000000000000000000000000000000000000600052603260045260246000fd5b7f596f752063616e206f6e6c7920766f7465206f6e63652e000000000000000000600082015250565b6000613434601783612e24565b915061343f826133fe565b602082019050919050565b6000602082019050818103600083015261346381613427565b9050919050565b7f4e487b7100000000000000000000000000000000000000000000000000000000600052604160045260246000fd5b600081905092915050565b7f416363657373436f6e74726f6c3a206163636f756e7420000000000000000000600082015250565b60006134da601783613499565b91506134e5826134a4565b601782019050919050565b60006134fb82612871565b6135058185613499565b935061351581856020860161288d565b80840191505092915050565b7f206973206d697373696e6720726f6c6520000000000000000000000000000000600082015250565b6000613557601183613499565b915061356282613521565b601182019050919050565b6000613578826134cd565b915061358482856134f0565b915061358f8261354a565b915061359b82846134f0565b91508190509392505050565b60006135b28261248d565b91506135bd8361248d565b9250817fffffffffffffffffffffffffffffffffffffffffffffffffffffffffffffffff04831182151516156135f6576135f5612fb4565b5b828202905092915050565b600061360c8261248d565b915060008214156136205761361f612fb4565b5b600182039050919050565b7f537472696e67733a20686578206c656e67746820696e73756666696369656e74600082015250565b6000613661602083612e24565b915061366c8261362b565b602082019050919050565b6000602082019050818103600083015261369081613654565b905091905056fe4f6e6c79205374616b65686f6c6465722063616e2063616c6c20746869732066756e6374696f6e2e4f6e6c79205374616b65686f6c646572732061726520616c6c6f77656420746f2072656c656173652066756e64734f6e6c79204d656d626572732063616e206372656174652070726f706f73616c734f6e6c79205374616b65686f6c646572732063616e20766f7465206f6e20612070726f706f73616c2e4f6e6c79204d656d626572732063616e2063616c6c20746869732066756e6374696f6e2e4f6e6c79205374616b65686f6c646572732063616e206d616b65207061796d656e7473a26469706673582212203882688a52c135c9b45bb0a785c36fe144f88266dd8e19204ae8394826491ab164736f6c63430008090033",
  "linkReferences": {},
  "deployedLinkReferences": {}
}