{
  "_format": "hh-sol-artifact-1",
  "contractName": "FundingDAO",
  "sourceName": "contracts/fundingDao.sol",
  "abi": [
    {
      "anonymous": false,
      "inputs": [
        {
          "indexed": false,
          "internalType": "address",
          "name": "sender",
          "type": "address"
        },
        {
          "indexed": false,
          "internalType": "uint256",
          "name": "amount",
          "type": "uint256"
        }
      ],
      "name": "NewProposal",
      "type": "event"
    },
    {
      "anonymous": false,
      "inputs": [
        {
          "indexed": true,
          "internalType": "bytes32",
          "name": "role",
          "type": "bytes32"
        },
        {
          "indexed": true,
          "internalType": "bytes32",
          "name": "previousAdminRole",
          "type": "bytes32"
        },
        {
          "indexed": true,
          "internalType": "bytes32",
          "name": "newAdminRole",
          "type": "bytes32"
        }
      ],
      "name": "RoleAdminChanged",
      "type": "event"
    },
    {
      "anonymous": false,
      "inputs": [
        {
          "indexed": true,
          "internalType": "bytes32",
          "name": "role",
          "type": "bytes32"
        },
        {
          "indexed": true,
          "internalType": "address",
          "name": "account",
          "type": "address"
        },
        {
          "indexed": true,
          "internalType": "address",
          "name": "sender",
          "type": "address"
        }
      ],
      "name": "RoleGranted",
      "type": "event"
    },
    {
      "anonymous": false,
      "inputs": [
        {
          "indexed": true,
          "internalType": "bytes32",
          "name": "role",
          "type": "bytes32"
        },
        {
          "indexed": true,
          "internalType": "address",
          "name": "account",
          "type": "address"
        },
        {
          "indexed": true,
          "internalType": "address",
          "name": "sender",
          "type": "address"
        }
      ],
      "name": "RoleRevoked",
      "type": "event"
    },
    {
      "inputs": [],
      "name": "DEFAULT_ADMIN_ROLE",
      "outputs": [
        {
          "internalType": "bytes32",
          "name": "",
          "type": "bytes32"
        }
      ],
      "stateMutability": "view",
      "type": "function"
    },
    {
      "inputs": [],
      "name": "MEMBER",
      "outputs": [
        {
          "internalType": "bytes32",
          "name": "",
          "type": "bytes32"
        }
      ],
      "stateMutability": "view",
      "type": "function"
    },
    {
      "inputs": [],
      "name": "STAKEHOLDER",
      "outputs": [
        {
          "internalType": "bytes32",
          "name": "",
          "type": "bytes32"
        }
      ],
      "stateMutability": "view",
      "type": "function"
    },
    {
      "inputs": [
        {
          "internalType": "string",
          "name": "title",
          "type": "string"
        },
        {
          "internalType": "string",
          "name": "desc",
          "type": "string"
        },
        {
          "internalType": "address",
          "name": "receiverAddress",
          "type": "address"
        },
        {
          "internalType": "uint256",
          "name": "amount",
          "type": "uint256"
        },
        {
          "internalType": "string",
          "name": "imageId",
          "type": "string"
        }
      ],
      "name": "createProposal",
      "outputs": [],
      "stateMutability": "payable",
      "type": "function"
    },
    {
      "inputs": [],
      "name": "createStakeholder",
      "outputs": [],
      "stateMutability": "payable",
      "type": "function"
    },
    {
      "inputs": [],
      "name": "getAllProposals",
      "outputs": [
        {
          "components": [
            {
              "internalType": "uint256",
              "name": "id",
              "type": "uint256"
            },
            {
              "internalType": "string",
              "name": "imageId",
              "type": "string"
            },
            {
              "internalType": "uint256",
              "name": "amount",
              "type": "uint256"
            },
            {
              "internalType": "uint256",
              "name": "livePeriod",
              "type": "uint256"
            },
            {
              "internalType": "uint256",
              "name": "voteInFavor",
              "type": "uint256"
            },
            {
              "internalType": "uint256",
              "name": "voteAgainst",
              "type": "uint256"
            },
            {
              "internalType": "string",
              "name": "title",
              "type": "string"
            },
            {
              "internalType": "string",
              "name": "desc",
              "type": "string"
            },
            {
              "internalType": "bool",
              "name": "isCompleted",
              "type": "bool"
            },
            {
              "internalType": "bool",
              "name": "paid",
              "type": "bool"
            },
            {
              "internalType": "bool",
              "name": "isPaid",
              "type": "bool"
            },
            {
              "internalType": "address payable",
              "name": "receiverAddress",
              "type": "address"
            },
            {
              "internalType": "address",
              "name": "proposer",
              "type": "address"
            },
            {
              "internalType": "uint256",
              "name": "totalFundRaised",
              "type": "uint256"
            },
            {
              "components": [
                {
                  "internalType": "address",
                  "name": "payer",
                  "type": "address"
                },
                {
                  "internalType": "uint256",
                  "name": "amount",
                  "type": "uint256"
                },
                {
                  "internalType": "uint256",
                  "name": "timestamp",
                  "type": "uint256"
                }
              ],
              "internalType": "struct FundingDAO.Funding[]",
              "name": "Funders",
              "type": "tuple[]"
            }
          ],
          "internalType": "struct FundingDAO.Proposal[]",
          "name": "",
          "type": "tuple[]"
        }
      ],
      "stateMutability": "view",
      "type": "function"
    },
    {
      "inputs": [],
      "name": "getMemberBal",
      "outputs": [
        {
          "internalType": "uint256",
          "name": "",
          "type": "uint256"
        }
      ],
      "stateMutability": "view",
      "type": "function"
    },
    {
      "inputs": [
        {
          "internalType": "uint256",
          "name": "proposalId",
          "type": "uint256"
        }
      ],
      "name": "getProposal",
      "outputs": [
        {
          "components": [
            {
              "internalType": "uint256",
              "name": "id",
              "type": "uint256"
            },
            {
              "internalType": "string",
              "name": "imageId",
              "type": "string"
            },
            {
              "internalType": "uint256",
              "name": "amount",
              "type": "uint256"
            },
            {
              "internalType": "uint256",
              "name": "livePeriod",
              "type": "uint256"
            },
            {
              "internalType": "uint256",
              "name": "voteInFavor",
              "type": "uint256"
            },
            {
              "internalType": "uint256",
              "name": "voteAgainst",
              "type": "uint256"
            },
            {
              "internalType": "string",
              "name": "title",
              "type": "string"
            },
            {
              "internalType": "string",
              "name": "desc",
              "type": "string"
            },
            {
              "internalType": "bool",
              "name": "isCompleted",
              "type": "bool"
            },
            {
              "internalType": "bool",
              "name": "paid",
              "type": "bool"
            },
            {
              "internalType": "bool",
              "name": "isPaid",
              "type": "bool"
            },
            {
              "internalType": "address payable",
              "name": "receiverAddress",
              "type": "address"
            },
            {
              "internalType": "address",
              "name": "proposer",
              "type": "address"
            },
            {
              "internalType": "uint256",
              "name": "totalFundRaised",
              "type": "uint256"
            },
            {
              "components": [
                {
                  "internalType": "address",
                  "name": "payer",
                  "type": "address"
                },
                {
                  "internalType": "uint256",
                  "name": "amount",
                  "type": "uint256"
                },
                {
                  "internalType": "uint256",
                  "name": "timestamp",
                  "type": "uint256"
                }
              ],
              "internalType": "struct FundingDAO.Funding[]",
              "name": "Funders",
              "type": "tuple[]"
            }
          ],
          "internalType": "struct FundingDAO.Proposal",
          "name": "",
          "type": "tuple"
        }
      ],
      "stateMutability": "view",
      "type": "function"
    },
    {
      "inputs": [
        {
          "internalType": "bytes32",
          "name": "role",
          "type": "bytes32"
        }
      ],
      "name": "getRoleAdmin",
      "outputs": [
        {
          "internalType": "bytes32",
          "name": "",
          "type": "bytes32"
        }
      ],
      "stateMutability": "view",
      "type": "function"
    },
    {
      "inputs": [],
      "name": "getStakeholderBal",
      "outputs": [
        {
          "internalType": "uint256",
          "name": "",
          "type": "uint256"
        }
      ],
      "stateMutability": "view",
      "type": "function"
    },
    {
      "inputs": [],
      "name": "getVotes",
      "outputs": [
        {
          "internalType": "uint256[]",
          "name": "",
          "type": "uint256[]"
        }
      ],
      "stateMutability": "view",
      "type": "function"
    },
    {
      "inputs": [
        {
          "internalType": "bytes32",
          "name": "role",
          "type": "bytes32"
        },
        {
          "internalType": "address",
          "name": "account",
          "type": "address"
        }
      ],
      "name": "grantRole",
      "outputs": [],
      "stateMutability": "nonpayable",
      "type": "function"
    },
    {
      "inputs": [
        {
          "internalType": "bytes32",
          "name": "role",
          "type": "bytes32"
        },
        {
          "internalType": "address",
          "name": "account",
          "type": "address"
        }
      ],
      "name": "hasRole",
      "outputs": [
        {
          "internalType": "bool",
          "name": "",
          "type": "bool"
        }
      ],
      "stateMutability": "view",
      "type": "function"
    },
    {
      "inputs": [],
      "name": "isMember",
      "outputs": [
        {
          "internalType": "bool",
          "name": "",
          "type": "bool"
        }
      ],
      "stateMutability": "view",
      "type": "function"
    },
    {
      "inputs": [],
      "name": "isStakeholder",
      "outputs": [
        {
          "internalType": "bool",
          "name": "",
          "type": "bool"
        }
      ],
      "stateMutability": "view",
      "type": "function"
    },
    {
      "inputs": [],
      "name": "proposalsCount",
      "outputs": [
        {
          "internalType": "uint256",
          "name": "",
          "type": "uint256"
        }
      ],
      "stateMutability": "view",
      "type": "function"
    },
    {
      "inputs": [
        {
          "internalType": "uint256",
          "name": "proposalId",
          "type": "uint256"
        },
        {
          "internalType": "uint256",
          "name": "fundAmount",
          "type": "uint256"
        }
      ],
      "name": "provideFunds",
      "outputs": [],
      "stateMutability": "payable",
      "type": "function"
    },
    {
      "inputs": [
        {
          "internalType": "uint256",
          "name": "proposalId",
          "type": "uint256"
        }
      ],
      "name": "releaseFunding",
      "outputs": [],
      "stateMutability": "payable",
      "type": "function"
    },
    {
      "inputs": [
        {
          "internalType": "bytes32",
          "name": "role",
          "type": "bytes32"
        },
        {
          "internalType": "address",
          "name": "account",
          "type": "address"
        }
      ],
      "name": "renounceRole",
      "outputs": [],
      "stateMutability": "nonpayable",
      "type": "function"
    },
    {
      "inputs": [
        {
          "internalType": "bytes32",
          "name": "role",
          "type": "bytes32"
        },
        {
          "internalType": "address",
          "name": "account",
          "type": "address"
        }
      ],
      "name": "revokeRole",
      "outputs": [],
      "stateMutability": "nonpayable",
      "type": "function"
    },
    {
      "inputs": [
        {
          "internalType": "bytes4",
          "name": "interfaceId",
          "type": "bytes4"
        }
      ],
      "name": "supportsInterface",
      "outputs": [
        {
          "internalType": "bool",
          "name": "",
          "type": "bool"
        }
      ],
      "stateMutability": "view",
      "type": "function"
    },
    {
      "inputs": [
        {
          "internalType": "uint256",
          "name": "proposalId",
          "type": "uint256"
        },
        {
          "internalType": "bool",
          "name": "inFavour",
          "type": "bool"
        }
      ],
      "name": "vote",
      "outputs": [],
      "stateMutability": "nonpayable",
      "type": "function"
    }
  ],
  "bytecode": "0x6080604052600060065534801561001557600080fd5b5060016000819055506139628061002d6000396000f3fe6080604052600436106101355760003560e01c806391d14854116100ab578063c7f758a81161006f578063c7f758a8146103ef578063c9d27afe1461042c578063cceb68f514610455578063d02982cf14610480578063d547741f146104ab578063f8d41b96146104d457610135565b806391d1485414610324578063a217fddf14610361578063a8e78b201461038c578063b3bcf752146103a8578063c02146ac146103c457610135565b8063248a9ca3116100fd578063248a9ca3146102235780632f2ff15d1461026057806336568abe146102895780636dd8cdd2146102b25780637ed3a7e7146102dd5780638bc3b92b1461030857610135565b806301ffc9a71461013a5780630a9f46ad146101775780630d2e57ee146101a25780630dc96015146101cd5780631c681a42146101f8575b600080fd5b34801561014657600080fd5b50610161600480360381019061015c919061256b565b6104de565b60405161016e91906125b3565b60405180910390f35b34801561018357600080fd5b5061018c610558565b60405161019991906125e7565b60405180910390f35b3480156101ae57600080fd5b506101b761055e565b6040516101c491906125e7565b60405180910390f35b3480156101d957600080fd5b506101e261062c565b6040516101ef91906126c0565b60405180910390f35b34801561020457600080fd5b5061020d610748565b60405161021a91906126fb565b60405180910390f35b34801561022f57600080fd5b5061024a60048036038101906102459190612742565b61076c565b60405161025791906126fb565b60405180910390f35b34801561026c57600080fd5b50610287600480360381019061028291906127cd565b61078c565b005b34801561029557600080fd5b506102b060048036038101906102ab91906127cd565b6107ad565b005b3480156102be57600080fd5b506102c7610830565b6040516102d491906125e7565b60405180910390f35b3480156102e957600080fd5b506102f26108fe565b6040516102ff91906126fb565b60405180910390f35b610322600480360381019061031d9190612839565b610922565b005b34801561033057600080fd5b5061034b600480360381019061034691906127cd565b610bae565b60405161035891906125b3565b60405180910390f35b34801561036d57600080fd5b50610376610c19565b60405161038391906126fb565b60405180910390f35b6103a660048036038101906103a191906128de565b610c20565b005b6103c260048036038101906103bd91906129ba565b610e97565b005b3480156103d057600080fd5b506103d961102c565b6040516103e691906125b3565b60405180910390f35b3480156103fb57600080fd5b50610416600480360381019061041191906129ba565b611075565b6040516104239190612d08565b60405180910390f35b34801561043857600080fd5b50610453600480360381019061044e9190612d56565b61145b565b005b34801561046157600080fd5b5061046a6116f1565b6040516104779190612fb0565b60405180910390f35b34801561048c57600080fd5b50610495611b6a565b6040516104a291906125b3565b60405180910390f35b3480156104b757600080fd5b506104d260048036038101906104cd91906127cd565b611bb3565b005b6104dc611bd4565b005b60007f7965db0b000000000000000000000000000000000000000000000000000000007bffffffffffffffffffffffffffffffffffffffffffffffffffffffff1916827bffffffffffffffffffffffffffffffffffffffffffffffffffffffff19161480610551575061055082611e8f565b5b9050919050565b60065481565b60006040518060600160405280602481526020016138e6602491396105a37fffa60083152bd11704a80cc8c7a409dad8aa74288b454a3ba0e94c0abc7cf16833610bae565b81906105e5576040517f08c379a00000000000000000000000000000000000000000000000000000000081526004016105dc919061301c565b60405180910390fd5b50600460003373ffffffffffffffffffffffffffffffffffffffff1673ffffffffffffffffffffffffffffffffffffffff1681526020019081526020016000205491505090565b6060604051806060016040528060288152602001613846602891396106717ff4bb84e1768dd286358a736d195a0b228621173f655a73b89bf8b191ed0ba07d33610bae565b81906106b3576040517f08c379a00000000000000000000000000000000000000000000000000000000081526004016106aa919061301c565b60405180910390fd5b50600560003373ffffffffffffffffffffffffffffffffffffffff1673ffffffffffffffffffffffffffffffffffffffff16815260200190815260200160002080548060200260200160405190810160405280929190818152602001828054801561073d57602002820191906000526020600020905b815481526020019060010190808311610729575b505050505091505090565b7fffa60083152bd11704a80cc8c7a409dad8aa74288b454a3ba0e94c0abc7cf16881565b600060016000838152602001908152602001600020600101549050919050565b6107958261076c565b61079e81611ef9565b6107a88383611f0d565b505050565b6107b5611fed565b73ffffffffffffffffffffffffffffffffffffffff168173ffffffffffffffffffffffffffffffffffffffff1614610822576040517f08c379a0000000000000000000000000000000000000000000000000000000008152600401610819906130b0565b60405180910390fd5b61082c8282611ff5565b5050565b6000604051806060016040528060288152602001613846602891396108757ff4bb84e1768dd286358a736d195a0b228621173f655a73b89bf8b191ed0ba07d33610bae565b81906108b7576040517f08c379a00000000000000000000000000000000000000000000000000000000081526004016108ae919061301c565b60405180910390fd5b50600460003373ffffffffffffffffffffffffffffffffffffffff1673ffffffffffffffffffffffffffffffffffffffff1681526020019081526020016000205491505090565b7ff4bb84e1768dd286358a736d195a0b228621173f655a73b89bf8b191ed0ba07d81565b60405180606001604052806023815260200161390a602391396109657ff4bb84e1768dd286358a736d195a0b228621173f655a73b89bf8b191ed0ba07d33610bae565b81906109a7576040517f08c379a000000000000000000000000000000000000000000000000000000000815260040161099e919061301c565b60405180910390fd5b5060006002600085815260200190815260200160002090508060080160029054906101000a900460ff1615610a11576040517f08c379a0000000000000000000000000000000000000000000000000000000008152600401610a089061311c565b60405180910390fd5b8060050154816004015411610a5b576040517f08c379a0000000000000000000000000000000000000000000000000000000008152600401610a52906131ae565b60405180910390fd5b806002015481600a015410610aa5576040517f08c379a0000000000000000000000000000000000000000000000000000000008152600401610a9c90613240565b60405180910390fd5b8281600a016000828254610ab9919061328f565b9250508190555080600b0160405180606001604052803373ffffffffffffffffffffffffffffffffffffffff16815260200185815260200142815250908060018154018082558091505060019003906000526020600020906003020160009091909190915060008201518160000160006101000a81548173ffffffffffffffffffffffffffffffffffffffff021916908373ffffffffffffffffffffffffffffffffffffffff16021790555060208201518160010155604082015181600201555050806002015481600a015410610ba85760018160080160006101000a81548160ff0219169083151502179055505b50505050565b60006001600084815260200190815260200160002060000160008373ffffffffffffffffffffffffffffffffffffffff1673ffffffffffffffffffffffffffffffffffffffff16815260200190815260200160002060009054906101000a900460ff16905092915050565b6000801b81565b60405180606001604052806021815260200161389c60219139610c637fffa60083152bd11704a80cc8c7a409dad8aa74288b454a3ba0e94c0abc7cf16833610bae565b8190610ca5576040517f08c379a0000000000000000000000000000000000000000000000000000000008152600401610c9c919061301c565b60405180910390fd5b50670de0b6b3a76400003414610cf0576040517f08c379a0000000000000000000000000000000000000000000000000000000008152600401610ce790613357565b60405180910390fd5b6000600654905060006002600083815260200190815260200160002090508181600001819055508888826007019190610d2a9291906123be565b508a8a826006019190610d3e9291906123be565b50868160080160036101000a81548173ffffffffffffffffffffffffffffffffffffffff021916908373ffffffffffffffffffffffffffffffffffffffff160217905550338160090160006101000a81548173ffffffffffffffffffffffffffffffffffffffff021916908373ffffffffffffffffffffffffffffffffffffffff1602179055508581600201819055506203f48063ffffffff1642610de3919061328f565b816003018190555060008160080160026101000a81548160ff02191690831515021790555060008160080160006101000a81548160ff0219169083151502179055508484826001019190610e389291906123be565b5060066000815480929190610e4c90613377565b91905055507f8dfa4a39b973cacc42c5d14d9461d66fd1fda5ea696f7d2a3c44fd9d7f11d04f3387604051610e829291906133cf565b60405180910390a15050505050505050505050565b6040518060600160405280602e815260200161386e602e9139610eda7ff4bb84e1768dd286358a736d195a0b228621173f655a73b89bf8b191ed0ba07d33610bae565b8190610f1c576040517f08c379a0000000000000000000000000000000000000000000000000000000008152600401610f13919061301c565b60405180910390fd5b506000600260008481526020019081526020016000209050806002015481600a015411610f7e576040517f08c379a0000000000000000000000000000000000000000000000000000000008152600401610f759061346a565b60405180910390fd5b8060080160039054906101000a900473ffffffffffffffffffffffffffffffffffffffff1673ffffffffffffffffffffffffffffffffffffffff166108fc82600a01549081150290604051600060405180830381858888f19350505050158015610fec573d6000803e3d6000fd5b5060018160080160026101000a81548160ff02191690831515021790555060018160080160006101000a81548160ff021916908315150217905550505050565b600080600360003373ffffffffffffffffffffffffffffffffffffffff1673ffffffffffffffffffffffffffffffffffffffff1681526020019081526020016000205411905090565b61107d612444565b60026000838152602001908152602001600020604051806101e0016040529081600082015481526020016001820180546110b6906134b9565b80601f01602080910402602001604051908101604052809291908181526020018280546110e2906134b9565b801561112f5780601f106111045761010080835404028352916020019161112f565b820191906000526020600020905b81548152906001019060200180831161111257829003601f168201915b5050505050815260200160028201548152602001600382015481526020016004820154815260200160058201548152602001600682018054611170906134b9565b80601f016020809104026020016040519081016040528092919081815260200182805461119c906134b9565b80156111e95780601f106111be576101008083540402835291602001916111e9565b820191906000526020600020905b8154815290600101906020018083116111cc57829003601f168201915b50505050508152602001600782018054611202906134b9565b80601f016020809104026020016040519081016040528092919081815260200182805461122e906134b9565b801561127b5780601f106112505761010080835404028352916020019161127b565b820191906000526020600020905b81548152906001019060200180831161125e57829003601f168201915b505050505081526020016008820160009054906101000a900460ff161515151581526020016008820160019054906101000a900460ff161515151581526020016008820160029054906101000a900460ff161515151581526020016008820160039054906101000a900473ffffffffffffffffffffffffffffffffffffffff1673ffffffffffffffffffffffffffffffffffffffff1673ffffffffffffffffffffffffffffffffffffffff1681526020016009820160009054906101000a900473ffffffffffffffffffffffffffffffffffffffff1673ffffffffffffffffffffffffffffffffffffffff1673ffffffffffffffffffffffffffffffffffffffff168152602001600a8201548152602001600b8201805480602002602001604051908101604052809291908181526020016000905b8282101561144c57838290600052602060002090600302016040518060600160405290816000820160009054906101000a900473ffffffffffffffffffffffffffffffffffffffff1673ffffffffffffffffffffffffffffffffffffffff1673ffffffffffffffffffffffffffffffffffffffff16815260200160018201548152602001600282015481525050815260200190600101906113b0565b50505050815250509050919050565b6040518060600160405280602981526020016138bd6029913961149e7ff4bb84e1768dd286358a736d195a0b228621173f655a73b89bf8b191ed0ba07d33610bae565b81906114e0576040517f08c379a00000000000000000000000000000000000000000000000000000000081526004016114d7919061301c565b60405180910390fd5b5060006002600085815260200190815260200160002090508060080160009054906101000a900460ff1680611519575042816003015411155b156115765760018160080160006101000a81548160ff0219169083151502179055506040517f08c379a000000000000000000000000000000000000000000000000000000000815260040161156d9061355d565b60405180910390fd5b60005b600560003373ffffffffffffffffffffffffffffffffffffffff1673ffffffffffffffffffffffffffffffffffffffff1681526020019081526020016000208054905081101561167857600560003373ffffffffffffffffffffffffffffffffffffffff1673ffffffffffffffffffffffffffffffffffffffff16815260200190815260200160002081815481106116145761161361357d565b5b906000526020600020015482600001541415611665576040517f08c379a000000000000000000000000000000000000000000000000000000000815260040161165c906135f8565b60405180910390fd5b808061167090613377565b915050611579565b50821561168457611685565b5b600560003373ffffffffffffffffffffffffffffffffffffffff1673ffffffffffffffffffffffffffffffffffffffff16815260200190815260200160002084908060018154018082558091505060019003906000526020600020016000909190919091505550505050565b6060600060065467ffffffffffffffff81111561171157611710613618565b5b60405190808252806020026020018201604052801561174a57816020015b611737612444565b81526020019060019003908161172f5790505b50905060005b600654811015611b625760026000828152602001908152602001600020604051806101e001604052908160008201548152602001600182018054611793906134b9565b80601f01602080910402602001604051908101604052809291908181526020018280546117bf906134b9565b801561180c5780601f106117e15761010080835404028352916020019161180c565b820191906000526020600020905b8154815290600101906020018083116117ef57829003601f168201915b505050505081526020016002820154815260200160038201548152602001600482015481526020016005820154815260200160068201805461184d906134b9565b80601f0160208091040260200160405190810160405280929190818152602001828054611879906134b9565b80156118c65780601f1061189b576101008083540402835291602001916118c6565b820191906000526020600020905b8154815290600101906020018083116118a957829003601f168201915b505050505081526020016007820180546118df906134b9565b80601f016020809104026020016040519081016040528092919081815260200182805461190b906134b9565b80156119585780601f1061192d57610100808354040283529160200191611958565b820191906000526020600020905b81548152906001019060200180831161193b57829003601f168201915b505050505081526020016008820160009054906101000a900460ff161515151581526020016008820160019054906101000a900460ff161515151581526020016008820160029054906101000a900460ff161515151581526020016008820160039054906101000a900473ffffffffffffffffffffffffffffffffffffffff1673ffffffffffffffffffffffffffffffffffffffff1673ffffffffffffffffffffffffffffffffffffffff1681526020016009820160009054906101000a900473ffffffffffffffffffffffffffffffffffffffff1673ffffffffffffffffffffffffffffffffffffffff1673ffffffffffffffffffffffffffffffffffffffff168152602001600a8201548152602001600b8201805480602002602001604051908101604052809291908181526020016000905b82821015611b2957838290600052602060002090600302016040518060600160405290816000820160009054906101000a900473ffffffffffffffffffffffffffffffffffffffff1673ffffffffffffffffffffffffffffffffffffffff1673ffffffffffffffffffffffffffffffffffffffff1681526020016001820154815260200160028201548152505081526020019060010190611a8d565b5050505081525050828281518110611b4457611b4361357d565b5b60200260200101819052508080611b5a90613377565b915050611750565b508091505090565b600080600460003373ffffffffffffffffffffffffffffffffffffffff1673ffffffffffffffffffffffffffffffffffffffff1681526020019081526020016000205411905090565b611bbc8261076c565b611bc581611ef9565b611bcf8383611ff5565b505050565b6000349050611c037ff4bb84e1768dd286358a736d195a0b228621173f655a73b89bf8b191ed0ba07d33610bae565b611ddf57600081600460003373ffffffffffffffffffffffffffffffffffffffff1673ffffffffffffffffffffffffffffffffffffffff16815260200190815260200160002054611c54919061328f565b9050671bc16d674ec800008110611d5857611c8f7ff4bb84e1768dd286358a736d195a0b228621173f655a73b89bf8b191ed0ba07d336120d7565b611cb97fffa60083152bd11704a80cc8c7a409dad8aa74288b454a3ba0e94c0abc7cf168336120d7565b80600360003373ffffffffffffffffffffffffffffffffffffffff1673ffffffffffffffffffffffffffffffffffffffff1681526020019081526020016000208190555081600460003373ffffffffffffffffffffffffffffffffffffffff1673ffffffffffffffffffffffffffffffffffffffff1681526020019081526020016000206000828254611d4c919061328f565b92505081905550611dd9565b611d827fffa60083152bd11704a80cc8c7a409dad8aa74288b454a3ba0e94c0abc7cf168336120d7565b81600460003373ffffffffffffffffffffffffffffffffffffffff1673ffffffffffffffffffffffffffffffffffffffff1681526020019081526020016000206000828254611dd1919061328f565b925050819055505b50611e8c565b80600460003373ffffffffffffffffffffffffffffffffffffffff1673ffffffffffffffffffffffffffffffffffffffff1681526020019081526020016000206000828254611e2e919061328f565b9250508190555080600360003373ffffffffffffffffffffffffffffffffffffffff1673ffffffffffffffffffffffffffffffffffffffff1681526020019081526020016000206000828254611e84919061328f565b925050819055505b50565b60007f01ffc9a7000000000000000000000000000000000000000000000000000000007bffffffffffffffffffffffffffffffffffffffffffffffffffffffff1916827bffffffffffffffffffffffffffffffffffffffffffffffffffffffff1916149050919050565b611f0a81611f05611fed565b6120e5565b50565b611f178282610bae565b611fe957600180600084815260200190815260200160002060000160008373ffffffffffffffffffffffffffffffffffffffff1673ffffffffffffffffffffffffffffffffffffffff16815260200190815260200160002060006101000a81548160ff021916908315150217905550611f8e611fed565b73ffffffffffffffffffffffffffffffffffffffff168173ffffffffffffffffffffffffffffffffffffffff16837f2f8788117e7eff1d82e926ec794901d17c78024a50270940304540a733656f0d60405160405180910390a45b5050565b600033905090565b611fff8282610bae565b156120d35760006001600084815260200190815260200160002060000160008373ffffffffffffffffffffffffffffffffffffffff1673ffffffffffffffffffffffffffffffffffffffff16815260200190815260200160002060006101000a81548160ff021916908315150217905550612078611fed565b73ffffffffffffffffffffffffffffffffffffffff168173ffffffffffffffffffffffffffffffffffffffff16837ff6391f5c32d9c69d2a47ea670b442974b53935d1edc7fd64eb21e047a839171b60405160405180910390a45b5050565b6120e18282611f0d565b5050565b6120ef8282610bae565b61217e576121148173ffffffffffffffffffffffffffffffffffffffff166014612182565b6121228360001c6020612182565b60405160200161213392919061371b565b6040516020818303038152906040526040517f08c379a0000000000000000000000000000000000000000000000000000000008152600401612175919061301c565b60405180910390fd5b5050565b6060600060028360026121959190613755565b61219f919061328f565b67ffffffffffffffff8111156121b8576121b7613618565b5b6040519080825280601f01601f1916602001820160405280156121ea5781602001600182028036833780820191505090505b5090507f3000000000000000000000000000000000000000000000000000000000000000816000815181106122225761222161357d565b5b60200101907effffffffffffffffffffffffffffffffffffffffffffffffffffffffffffff1916908160001a9053507f7800000000000000000000000000000000000000000000000000000000000000816001815181106122865761228561357d565b5b60200101907effffffffffffffffffffffffffffffffffffffffffffffffffffffffffffff1916908160001a905350600060018460026122c69190613755565b6122d0919061328f565b90505b6001811115612370577f3031323334353637383961626364656600000000000000000000000000000000600f8616601081106123125761231161357d565b5b1a60f81b8282815181106123295761232861357d565b5b60200101907effffffffffffffffffffffffffffffffffffffffffffffffffffffffffffff1916908160001a905350600485901c945080612369906137af565b90506122d3565b50600084146123b4576040517f08c379a00000000000000000000000000000000000000000000000000000000081526004016123ab90613825565b60405180910390fd5b8091505092915050565b8280546123ca906134b9565b90600052602060002090601f0160209004810192826123ec5760008555612433565b82601f1061240557803560ff1916838001178555612433565b82800160010185558215612433579182015b82811115612432578235825591602001919060010190612417565b5b50905061244091906124ec565b5090565b604051806101e001604052806000815260200160608152602001600081526020016000815260200160008152602001600081526020016060815260200160608152602001600015158152602001600015158152602001600015158152602001600073ffffffffffffffffffffffffffffffffffffffff168152602001600073ffffffffffffffffffffffffffffffffffffffff16815260200160008152602001606081525090565b5b808211156125055760008160009055506001016124ed565b5090565b600080fd5b600080fd5b60007fffffffff0000000000000000000000000000000000000000000000000000000082169050919050565b61254881612513565b811461255357600080fd5b50565b6000813590506125658161253f565b92915050565b60006020828403121561258157612580612509565b5b600061258f84828501612556565b91505092915050565b60008115159050919050565b6125ad81612598565b82525050565b60006020820190506125c860008301846125a4565b92915050565b6000819050919050565b6125e1816125ce565b82525050565b60006020820190506125fc60008301846125d8565b92915050565b600081519050919050565b600082825260208201905092915050565b6000819050602082019050919050565b612637816125ce565b82525050565b6000612649838361262e565b60208301905092915050565b6000602082019050919050565b600061266d82612602565b612677818561260d565b93506126828361261e565b8060005b838110156126b357815161269a888261263d565b97506126a583612655565b925050600181019050612686565b5085935050505092915050565b600060208201905081810360008301526126da8184612662565b905092915050565b6000819050919050565b6126f5816126e2565b82525050565b600060208201905061271060008301846126ec565b92915050565b61271f816126e2565b811461272a57600080fd5b50565b60008135905061273c81612716565b92915050565b60006020828403121561275857612757612509565b5b60006127668482850161272d565b91505092915050565b600073ffffffffffffffffffffffffffffffffffffffff82169050919050565b600061279a8261276f565b9050919050565b6127aa8161278f565b81146127b557600080fd5b50565b6000813590506127c7816127a1565b92915050565b600080604083850312156127e4576127e3612509565b5b60006127f28582860161272d565b9250506020612803858286016127b8565b9150509250929050565b612816816125ce565b811461282157600080fd5b50565b6000813590506128338161280d565b92915050565b600080604083850312156128505761284f612509565b5b600061285e85828601612824565b925050602061286f85828601612824565b9150509250929050565b600080fd5b600080fd5b600080fd5b60008083601f84011261289e5761289d612879565b5b8235905067ffffffffffffffff8111156128bb576128ba61287e565b5b6020830191508360018202830111156128d7576128d6612883565b5b9250929050565b60008060008060008060008060a0898b0312156128fe576128fd612509565b5b600089013567ffffffffffffffff81111561291c5761291b61250e565b5b6129288b828c01612888565b9850985050602089013567ffffffffffffffff81111561294b5761294a61250e565b5b6129578b828c01612888565b9650965050604061296a8b828c016127b8565b945050606061297b8b828c01612824565b935050608089013567ffffffffffffffff81111561299c5761299b61250e565b5b6129a88b828c01612888565b92509250509295985092959890939650565b6000602082840312156129d0576129cf612509565b5b60006129de84828501612824565b91505092915050565b600081519050919050565b600082825260208201905092915050565b60005b83811015612a21578082015181840152602081019050612a06565b83811115612a30576000848401525b50505050565b6000601f19601f8301169050919050565b6000612a52826129e7565b612a5c81856129f2565b9350612a6c818560208601612a03565b612a7581612a36565b840191505092915050565b612a8981612598565b82525050565b6000612a9a8261276f565b9050919050565b612aaa81612a8f565b82525050565b612ab98161278f565b82525050565b600081519050919050565b600082825260208201905092915050565b6000819050602082019050919050565b606082016000820151612b016000850182612ab0565b506020820151612b14602085018261262e565b506040820151612b27604085018261262e565b50505050565b6000612b398383612aeb565b60608301905092915050565b6000602082019050919050565b6000612b5d82612abf565b612b678185612aca565b9350612b7283612adb565b8060005b83811015612ba3578151612b8a8882612b2d565b9750612b9583612b45565b925050600181019050612b76565b5085935050505092915050565b60006101e083016000830151612bc9600086018261262e565b5060208301518482036020860152612be18282612a47565b9150506040830151612bf6604086018261262e565b506060830151612c09606086018261262e565b506080830151612c1c608086018261262e565b5060a0830151612c2f60a086018261262e565b5060c083015184820360c0860152612c478282612a47565b91505060e083015184820360e0860152612c618282612a47565b915050610100830151612c78610100860182612a80565b50610120830151612c8d610120860182612a80565b50610140830151612ca2610140860182612a80565b50610160830151612cb7610160860182612aa1565b50610180830151612ccc610180860182612ab0565b506101a0830151612ce16101a086018261262e565b506101c08301518482036101c0860152612cfb8282612b52565b9150508091505092915050565b60006020820190508181036000830152612d228184612bb0565b905092915050565b612d3381612598565b8114612d3e57600080fd5b50565b600081359050612d5081612d2a565b92915050565b60008060408385031215612d6d57612d6c612509565b5b6000612d7b85828601612824565b9250506020612d8c85828601612d41565b9150509250929050565b600081519050919050565b600082825260208201905092915050565b6000819050602082019050919050565b60006101e083016000830151612ddb600086018261262e565b5060208301518482036020860152612df38282612a47565b9150506040830151612e08604086018261262e565b506060830151612e1b606086018261262e565b506080830151612e2e608086018261262e565b5060a0830151612e4160a086018261262e565b5060c083015184820360c0860152612e598282612a47565b91505060e083015184820360e0860152612e738282612a47565b915050610100830151612e8a610100860182612a80565b50610120830151612e9f610120860182612a80565b50610140830151612eb4610140860182612a80565b50610160830151612ec9610160860182612aa1565b50610180830151612ede610180860182612ab0565b506101a0830151612ef36101a086018261262e565b506101c08301518482036101c0860152612f0d8282612b52565b9150508091505092915050565b6000612f268383612dc2565b905092915050565b6000602082019050919050565b6000612f4682612d96565b612f508185612da1565b935083602082028501612f6285612db2565b8060005b85811015612f9e5784840389528151612f7f8582612f1a565b9450612f8a83612f2e565b925060208a01995050600181019050612f66565b50829750879550505050505092915050565b60006020820190508181036000830152612fca8184612f3b565b905092915050565b600082825260208201905092915050565b6000612fee826129e7565b612ff88185612fd2565b9350613008818560208601612a03565b61301181612a36565b840191505092915050565b600060208201905081810360008301526130368184612fe3565b905092915050565b7f416363657373436f6e74726f6c3a2063616e206f6e6c792072656e6f756e636560008201527f20726f6c657320666f722073656c660000000000000000000000000000000000602082015250565b600061309a602f83612fd2565b91506130a58261303e565b604082019050919050565b600060208201905081810360008301526130c98161308d565b9050919050565b7f50726f706f73616c20616c72656164792070616964206f75742e000000000000600082015250565b6000613106601a83612fd2565b9150613111826130d0565b602082019050919050565b60006020820190508181036000830152613135816130f9565b9050919050565b7f546869732070726f706f73616c206973206e6f742073656c656374656420666f60008201527f722066756e64696e672e00000000000000000000000000000000000000000000602082015250565b6000613198602a83612fd2565b91506131a38261313c565b604082019050919050565b600060208201905081810360008301526131c78161318b565b9050919050565b7f50726f706f73616c2066756e64696e6720676f616c20616c726561647920726560008201527f61636865642e0000000000000000000000000000000000000000000000000000602082015250565b600061322a602683612fd2565b9150613235826131ce565b604082019050919050565b600060208201905081810360008301526132598161321d565b9050919050565b7f4e487b7100000000000000000000000000000000000000000000000000000000600052601160045260246000fd5b600061329a826125ce565b91506132a5836125ce565b9250827fffffffffffffffffffffffffffffffffffffffffffffffffffffffffffffffff038211156132da576132d9613260565b5b828201905092915050565b7f596f75206e65656420746f206164642031204d4154494320746f20637265617460008201527f6520612070726f706f73616c0000000000000000000000000000000000000000602082015250565b6000613341602c83612fd2565b915061334c826132e5565b604082019050919050565b6000602082019050818103600083015261337081613334565b9050919050565b6000613382826125ce565b91507fffffffffffffffffffffffffffffffffffffffffffffffffffffffffffffffff8214156133b5576133b4613260565b5b600182019050919050565b6133c98161278f565b82525050565b60006040820190506133e460008301856133c0565b6133f160208301846125d8565b9392505050565b7f5265717565737465642066756e64696e6720676f616c206973206e6f74206d6560008201527f742e20506c656173652070726f766964652066756e64732e0000000000000000602082015250565b6000613454603883612fd2565b915061345f826133f8565b604082019050919050565b6000602082019050818103600083015261348381613447565b9050919050565b7f4e487b7100000000000000000000000000000000000000000000000000000000600052602260045260246000fd5b600060028204905060018216806134d157607f821691505b602082108114156134e5576134e461348a565b5b50919050565b7f54696d6520706572696f64206f6620746869732070726f706f73616c2069732060008201527f656e646564000000000000000000000000000000000000000000000000000000602082015250565b6000613547602583612fd2565b9150613552826134eb565b604082019050919050565b600060208201905081810360008301526135768161353a565b9050919050565b7f4e487b7100000000000000000000000000000000000000000000000000000000600052603260045260246000fd5b7f596f752063616e206f6e6c7920766f7465206f6e63652e000000000000000000600082015250565b60006135e2601783612fd2565b91506135ed826135ac565b602082019050919050565b60006020820190508181036000830152613611816135d5565b9050919050565b7f4e487b7100000000000000000000000000000000000000000000000000000000600052604160045260246000fd5b600081905092915050565b7f416363657373436f6e74726f6c3a206163636f756e7420000000000000000000600082015250565b6000613688601783613647565b915061369382613652565b601782019050919050565b60006136a9826129e7565b6136b38185613647565b93506136c3818560208601612a03565b80840191505092915050565b7f206973206d697373696e6720726f6c6520000000000000000000000000000000600082015250565b6000613705601183613647565b9150613710826136cf565b601182019050919050565b60006137268261367b565b9150613732828561369e565b915061373d826136f8565b9150613749828461369e565b91508190509392505050565b6000613760826125ce565b915061376b836125ce565b9250817fffffffffffffffffffffffffffffffffffffffffffffffffffffffffffffffff04831182151516156137a4576137a3613260565b5b828202905092915050565b60006137ba826125ce565b915060008214156137ce576137cd613260565b5b600182039050919050565b7f537472696e67733a20686578206c656e67746820696e73756666696369656e74600082015250565b600061380f602083612fd2565b915061381a826137d9565b602082019050919050565b6000602082019050818103600083015261383e81613802565b905091905056fe4f6e6c79205374616b65686f6c6465722063616e2063616c6c20746869732066756e6374696f6e2e4f6e6c79205374616b65686f6c646572732061726520616c6c6f77656420746f2072656c656173652066756e64734f6e6c79204d656d626572732063616e206372656174652070726f706f73616c734f6e6c79205374616b65686f6c646572732063616e20766f7465206f6e20612070726f706f73616c2e4f6e6c79204d656d626572732063616e2063616c6c20746869732066756e6374696f6e2e4f6e6c79205374616b65686f6c646572732063616e206d616b65207061796d656e7473a26469706673582212208ef462e72b12d2496a89230ae5795d6fea02d2a448db65d4a1a74d8242a3405864736f6c63430008090033",
  "linkReferences": {},
  "deployedLinkReferences": {}
}